{
  "_format": "hh-sol-artifact-1",
  "contractName": "FixeStake",
  "sourceName": "contracts/FixeStake.sol",
  "abi": [
    {
      "inputs": [
        {
          "internalType": "address",
          "name": "_fixeAddress",
          "type": "address"
        }
      ],
      "stateMutability": "nonpayable",
      "type": "constructor"
    },
    {
      "anonymous": false,
      "inputs": [
        {
          "indexed": true,
          "internalType": "address",
          "name": "staker",
          "type": "address"
        },
        {
          "indexed": false,
          "internalType": "uint256",
          "name": "amount",
          "type": "uint256"
        }
      ],
      "name": "Collected",
      "type": "event"
    },
    {
      "anonymous": false,
      "inputs": [
        {
          "indexed": true,
          "internalType": "address",
          "name": "staker",
          "type": "address"
        },
        {
          "indexed": false,
          "internalType": "uint256",
          "name": "amount",
          "type": "uint256"
        }
      ],
      "name": "Deposit",
      "type": "event"
    },
    {
      "anonymous": false,
      "inputs": [
        {
          "indexed": false,
          "internalType": "uint256",
          "name": "amount",
          "type": "uint256"
        }
      ],
      "name": "DividendPaid",
      "type": "event"
    },
    {
      "anonymous": false,
      "inputs": [
        {
          "indexed": true,
          "internalType": "address",
          "name": "staker",
          "type": "address"
        },
        {
          "indexed": false,
          "internalType": "uint256",
          "name": "amount",
          "type": "uint256"
        }
      ],
      "name": "Withdraw",
      "type": "event"
    },
    {
      "inputs": [],
      "name": "Fixe",
      "outputs": [
        {
          "internalType": "contract IERC20",
          "name": "",
          "type": "address"
        }
      ],
      "stateMutability": "view",
      "type": "function"
    },
    {
      "inputs": [],
      "name": "ONE_MONTH_IN_SECONDS",
      "outputs": [
        {
          "internalType": "uint256",
          "name": "",
          "type": "uint256"
        }
      ],
      "stateMutability": "view",
      "type": "function"
    },
    {
      "inputs": [],
      "name": "ONE_WEEK_IN_SECONDS",
      "outputs": [
        {
          "internalType": "uint256",
          "name": "",
          "type": "uint256"
        }
      ],
      "stateMutability": "view",
      "type": "function"
    },
    {
      "inputs": [],
      "name": "SIX_MONTHS_IN_SECONDS",
      "outputs": [
        {
          "internalType": "uint256",
          "name": "",
          "type": "uint256"
        }
      ],
      "stateMutability": "view",
      "type": "function"
    },
    {
      "inputs": [],
      "name": "THREE_MONTHS_IN_SECONDS",
      "outputs": [
        {
          "internalType": "uint256",
          "name": "",
          "type": "uint256"
        }
      ],
      "stateMutability": "view",
      "type": "function"
    },
    {
      "inputs": [],
      "name": "YEAR_IN_SECONDS",
      "outputs": [
        {
          "internalType": "uint256",
          "name": "",
          "type": "uint256"
        }
      ],
      "stateMutability": "view",
      "type": "function"
    },
    {
      "inputs": [],
      "name": "collect",
      "outputs": [],
      "stateMutability": "nonpayable",
      "type": "function"
    },
    {
      "inputs": [
        {
          "internalType": "uint256",
          "name": "amount",
          "type": "uint256"
        }
      ],
      "name": "deposit",
      "outputs": [],
      "stateMutability": "nonpayable",
      "type": "function"
    },
    {
      "inputs": [
        {
          "internalType": "uint256",
          "name": "rewardAmount",
          "type": "uint256"
        }
      ],
      "name": "distributeRewards",
      "outputs": [],
      "stateMutability": "nonpayable",
      "type": "function"
    },
    {
      "inputs": [],
      "name": "fixeAddress",
      "outputs": [
        {
          "internalType": "address",
          "name": "",
          "type": "address"
        }
      ],
      "stateMutability": "view",
      "type": "function"
    },
    {
      "inputs": [
        {
          "internalType": "address",
          "name": "_address",
          "type": "address"
        }
      ],
      "name": "getReward",
      "outputs": [
        {
          "internalType": "uint256",
          "name": "",
          "type": "uint256"
        }
      ],
      "stateMutability": "view",
      "type": "function"
    },
    {
      "inputs": [
        {
          "internalType": "address",
          "name": "_address",
          "type": "address"
        }
      ],
      "name": "getStaker",
      "outputs": [
        {
          "internalType": "uint256",
          "name": "balance",
          "type": "uint256"
        },
        {
          "internalType": "uint256",
          "name": "depositTime",
          "type": "uint256"
        },
        {
          "internalType": "uint256",
          "name": "cumulativeRewards",
          "type": "uint256"
        }
      ],
      "stateMutability": "view",
      "type": "function"
    },
    {
      "inputs": [
        {
          "internalType": "address",
          "name": "_address",
          "type": "address"
        }
      ],
      "name": "isStaker",
      "outputs": [
        {
          "internalType": "bool",
          "name": "",
          "type": "bool"
        }
      ],
      "stateMutability": "view",
      "type": "function"
    },
    {
      "inputs": [],
      "name": "restake",
      "outputs": [],
      "stateMutability": "nonpayable",
      "type": "function"
    },
    {
      "inputs": [
        {
          "internalType": "address",
          "name": "",
          "type": "address"
        }
      ],
      "name": "stakers",
      "outputs": [
        {
          "internalType": "uint256",
          "name": "balance",
          "type": "uint256"
        },
        {
          "internalType": "uint256",
          "name": "depositTime",
          "type": "uint256"
        },
        {
          "internalType": "uint256",
          "name": "cumulativeRewards",
          "type": "uint256"
        }
      ],
      "stateMutability": "view",
      "type": "function"
    },
    {
      "inputs": [
        {
          "internalType": "uint256",
          "name": "",
          "type": "uint256"
        }
      ],
      "name": "stakersArr",
      "outputs": [
        {
          "internalType": "address",
          "name": "",
          "type": "address"
        }
      ],
      "stateMutability": "view",
      "type": "function"
    },
    {
      "inputs": [],
      "name": "stakersCount",
      "outputs": [
        {
          "internalType": "uint256",
          "name": "",
          "type": "uint256"
        }
      ],
      "stateMutability": "view",
      "type": "function"
    },
    {
      "inputs": [],
      "name": "totalRewardPaid",
      "outputs": [
        {
          "internalType": "uint256",
          "name": "",
          "type": "uint256"
        }
      ],
      "stateMutability": "view",
      "type": "function"
    },
    {
      "inputs": [],
      "name": "totalStaked",
      "outputs": [
        {
          "internalType": "uint256",
          "name": "",
          "type": "uint256"
        }
      ],
      "stateMutability": "view",
      "type": "function"
    },
    {
      "inputs": [
        {
          "internalType": "uint256",
          "name": "amount",
          "type": "uint256"
        }
      ],
      "name": "withdraw",
      "outputs": [],
      "stateMutability": "nonpayable",
      "type": "function"
    }
  ],
  "bytecode": "0x608060405234801561001057600080fd5b50604051610e75380380610e7583398101604081905261002f9161005e565b600580546001600160a01b039092166001600160a01b031992831681179091556006805490921617905561008e565b60006020828403121561007057600080fd5b81516001600160a01b038116811461008757600080fd5b9392505050565b610dd88061009d6000396000f3fe608060405234801561001057600080fd5b506004361061012c5760003560e01c8063a23c44b1116100ad578063c00007b011610071578063c00007b0146102ba578063d0a5e1d1146102e6578063db2bf127146102f0578063e4cb8e9a14610303578063e52253811461030d57600080fd5b8063a23c44b11461024b578063a2e80c5e14610281578063aa0cacbc1461028a578063ab5d658d1461029d578063b6b55f25146102a757600080fd5b80636f1e8533116100f45780636f1e8533146101875780637847ea53146101c25780637fab38f1146101cd578063817b1cd2146101f85780639168ae721461020157600080fd5b80632e1a7d4d146101315780634f91440d1461014657806359974e381461014e5780635a632c28146101615780635de357a21461017d575b600080fd5b61014461013f366004610c87565b610315565b005b6101446104b3565b61014461015c366004610c87565b610517565b61016a60035481565b6040519081526020015b60405180910390f35b61016a622819a081565b6101b2610195366004610ca0565b6001600160a01b0316600090815260208190526040902054151590565b6040519015158152602001610174565b61016a6301e1338081565b6005546101e0906001600160a01b031681565b6040516001600160a01b039091168152602001610174565b61016a60025481565b61023061020f366004610ca0565b60006020819052908152604090208054600182015460029092015490919083565b60408051938452602084019290925290820152606001610174565b610230610259366004610ca0565b6001600160a01b03166000908152602081905260409020805460018201546002909201549092565b61016a60015481565b6006546101e0906001600160a01b031681565b61016a62093a8081565b6101446102b5366004610c87565b610746565b61016a6102c8366004610ca0565b6001600160a01b031660009081526020819052604090206002015490565b61016a62f099c081565b6101e06102fe366004610c87565b6109d8565b61016a62784ce081565b610144610a02565b336000818152602081905260409020805430908411156103735760405162461bcd60e51b8152602060048201526014602482015273496e73756666696369656e742062616c616e636560601b60448201526064015b60405180910390fd5b600084116103c35760405162461bcd60e51b815260206004820181905260248201527f416d6f756e74206d7573742062652067726561746572207468616e207a65726f604482015260640161036a565b60065460405163a9059cbb60e01b81526001600160a01b038581166004830152602482018790529091169063a9059cbb90604401602060405180830381600087803b15801561041157600080fd5b505af1158015610425573d6000803e3d6000fd5b505050506040513d601f19601f820116820180604052508101906104499190610cc9565b5081546104569085610b21565b82556002546104659085610b21565b6002554260018301556040518481526001600160a01b038216907f884edad9ce6fa2440d8a54cc123490eb96d2768479d49ff9c7366125a9424364906020015b60405180910390a250505050565b336000818152602081905260409020600281015481546104d39082610b34565b82556000600283015560405181815233907fe1fffcc4923d04b559f4d29a8bfc6cda04eb5b0d3c460751c2402c5c5cc9109c906020015b60405180910390a2505050565b6000600254116105695760405162461bcd60e51b815260206004820181905260248201527f4e6f207374616b65727320746f20646973747269627574652072657761726473604482015260640161036a565b600081116105c95760405162461bcd60e51b815260206004820152602760248201527f52657761726420616d6f756e74206d7573742062652067726561746572207468604482015266616e207a65726f60c81b606482015260840161036a565b42816000805b600454811015610663576000600482815481106105ee576105ee610ceb565b60009182526020808320909101546001600160a01b03168083529082905260409091208054919250901561064e576000610629828888610b40565b600283015490915061063b9082610b34565b600283015561064a8582610b34565b9450505b5050808061065b90610d17565b9150506105cf565b5060006106708383610b21565b6006546040516323b872dd60e01b8152336004820152306024820152604481018390529192506001600160a01b0316906323b872dd90606401602060405180830381600087803b1580156106c357600080fd5b505af11580156106d7573d6000803e3d6000fd5b505050506040513d601f19601f820116820180604052508101906106fb9190610cc9565b506003546107099082610b34565b6003556040518181527faeb3707543ef2665b7c6b7bb92e54a618f0c16d6e6f80cff0ca9c90412e6405e9060200160405180910390a15050505050565b3360008181526020819052604090208054909130911580159061076d575060008360020154115b1561089f57600654600284015460405163a9059cbb60e01b815233600482015260248101919091526001600160a01b039091169063a9059cbb90604401602060405180830381600087803b1580156107c457600080fd5b505af11580156107d8573d6000803e3d6000fd5b505050506040513d601f19601f820116820180604052508101906107fc9190610cc9565b5082546108099085610b34565b83556006546040516323b872dd60e01b81526001600160a01b038381166004830152848116602483015260448201879052909116906323b872dd90606401602060405180830381600087803b15801561086157600080fd5b505af1158015610875573d6000803e3d6000fd5b505050506040513d601f19601f820116820180604052508101906108999190610cc9565b50610996565b6006546040516323b872dd60e01b81526001600160a01b038381166004830152848116602483015260448201879052909116906323b872dd90606401602060405180830381600087803b1580156108f557600080fd5b505af1158015610909573d6000803e3d6000fd5b505050506040513d601f19601f8201168201806040525081019061092d9190610cc9565b50838355600480546001808201835560009283527f8a35acfbc15ff81a39ae7d344fd709f28e8600b4aa8c65c6b64bfe7fe36bd19b90910180546001600160a01b0319166001600160a01b03851617905580549161098a83610d17565b90915550504260018401555b6002546109a39085610b34565b60025560405184815233907fe1fffcc4923d04b559f4d29a8bfc6cda04eb5b0d3c460751c2402c5c5cc9109c906020016104a5565b600481815481106109e857600080fd5b6000918252602090912001546001600160a01b0316905081565b336000818152602081905260409020600281015480610a585760405162461bcd60e51b8152602060048201526012602482015271139bdd1a1a5b99c81d1bc818dbdb1b1958dd60721b604482015260640161036a565b60065460405163a9059cbb60e01b81526001600160a01b038581166004830152602482018490529091169063a9059cbb90604401602060405180830381600087803b158015610aa657600080fd5b505af1158015610aba573d6000803e3d6000fd5b505050506040513d601f19601f82011682018060405250810190610ade9190610cc9565b50600060028301556040518181526001600160a01b038416907f8c22f554c81b54107cd95e734e4ef45767214974a540f34ea4a4f8c3fc7b13c39060200161050a565b6000610b2d8284610d32565b9392505050565b6000610b2d8284610d49565b600080610b5a856001015485610b2190919063ffffffff16565b90506301e133808110610b705782915050610b2d565b62f099c08110610bb557610bad6064610ba7600254610ba7604b610ba18b600001548a610c6f90919063ffffffff16565b90610c6f565b90610c7b565b915050610b2d565b62784ce08110610be657610bad6064610ba7600254610ba76032610ba18b600001548a610c6f90919063ffffffff16565b622819a08110610c1757610bad6064610ba7600254610ba76019610ba18b600001548a610c6f90919063ffffffff16565b62093a808110610c4857610bad6064610ba7600254610ba7600a610ba18b600001548a610c6f90919063ffffffff16565b610bad6064610ba7600254610ba76005610ba18b600001548a610c6f90919063ffffffff16565b6000610b2d8284610d61565b6000610b2d8284610d80565b600060208284031215610c9957600080fd5b5035919050565b600060208284031215610cb257600080fd5b81356001600160a01b0381168114610b2d57600080fd5b600060208284031215610cdb57600080fd5b81518015158114610b2d57600080fd5b634e487b7160e01b600052603260045260246000fd5b634e487b7160e01b600052601160045260246000fd5b6000600019821415610d2b57610d2b610d01565b5060010190565b600082821015610d4457610d44610d01565b500390565b60008219821115610d5c57610d5c610d01565b500190565b6000816000190483118215151615610d7b57610d7b610d01565b500290565b600082610d9d57634e487b7160e01b600052601260045260246000fd5b50049056fea264697066735822122092700f035d7a0fbe1252f195e2a88691f582b593a2a2ea12fd212f8fca6d123f64736f6c63430008090033",
  "linkReferences": {},
  "deployedLinkReferences": {}
}